S00B0000342D352E7372656383
S1130000C6C00000E1C00000DFC00000DDC0000089
S1130010DBC00000D9C00000D7C00000D5C000007C
S1130020D3C00000D1C00000CFC00000CDC000008C
S1130030CBC00000C9C00000C7C00000C5C000009C
S1130040C3C00000C1C00000BFC00000BDC00000AC
S1130050BBC00000B9C00000B7C00000B5C00000BC
S1130060B3C00000B1C00000AFC00000ADC00000CC
S1130070ABC00000A9C00000A7C00000A5C00000DC
S1130080A3C00000A1C000009FC000006E616E000C
S1130090696E660000407A10F35A00A0724E180987
S11300A00010A5D4E80000E87648170000E40B54DB
S11300B0020000CA9A3B000000E1F50500008096AA
S11300C09800000040420F000000A08601000000DC
S11300D0102700000000E803000000006400000096
S11300E000000A00000000000100000000002C765F
S11300F0D888DC674F0823DFC1DFAE59E1B1B7967A
S1130100E5E3E453C63AE651997696E8E6C28426D6
S1130110EB898C9B62ED407C6FFCEFBC9C9F40F2B2
S1130120BAA56FA5F490055A2AF75C936B6CF9672E
S11301306DC11BFCE0E40D47FEF520E6B500D0EDF3
S1130140902E0300943577050080841E080000205B
S11301504E0A000000C80C333333330F986E1283F9
S11301601141EF8D2114893BE65516CFFEE6DB18CD
S1130170D1844B381BF77C1D901DA4BBE424203292
S113018084725E228100C9F124ECA1E53D2711248B
S11301901FBECFEFD0E1DEBFCDBF11E0A0E0B1E0E4
S11301A0E2EBFCE000E00BBF02C007900D92AE341E
S11301B0B107D9F721E0AEE4B1E001C01D92A43546
S11301C0B207E1F719D073C51BCF5D9BFECF8CB985
S11301D00895109290008FEC89B98BB182608BB92D
S11301E0E5E9F0E08081866080838AB180618AB924
S11301F08AB188608AB90895ECDF80E091E0909339
S1130200510180935001CFE3CF9380E88F931F92E5
S11302101F928EE091E09F938F93D8D4CF93D0EC2C
S1130220DF931F921F928EE191E09F938F93CED420
S1130230CF93DF931F921F928EE291E09F938F934F
S1130240C5D4CF93DF931F921F928EE391E09F93C7
S11302508F93BCD48DB79EB748960FB6F8949EBFC3
S11302600FBE8DBFFFCF2F923F924F925F926F923E
S11302707F928F929F92AF92BF92CF92DF92EF9232
S1130280FF920F931F93CF93DF93CDB7DEB76097A1
S11302900FB6F894DEBF0FBECDBF7C011B016A010F
S11302A0FC0117821682838181FF2AC39E012F5F7E
S11302B03F4F3901F7019381F10193FD859193FF3C
S11302C081911F01882309F417C3853239F493FD02
S11302D0859193FF81911F01853231F4B70190E03C
S11302E039D456016501E6CF10E0512C912CFFE181
S11302F0F915D8F08B3279F038F4803279F0833202
S1130300A1F4F92DF0612EC08D3261F0803369F4CF
S1130310292D21602DC0392D3260932E892D8460C2
S1130320982E2AC0E92DE86015C097FC2DC020ED59
S1130330280F2A3088F496FE06C03AE0139F200D59
S11303401124122F19C08AE0589E200D1124522E18
S1130350E92DE0629E2E10C08E3231F496FCCCC2A0
S1130360F92DF0649F2E08C08C3621F4292D2068C5
S1130370922E02C0883641F4F10193FD859193FFDA
S113038081911F018111B3CF9BEB980F933020F41F
S1130390992D9061805E07C09BE9980F933008F017
S11303A059C1992D9F7E96FF16E09F73992E85362D
S11303B019F49064992E08C0863621F4392F3068D8
S11303C0932E02C01111115097FE07C01C3350F434
S11303D044244394410E27E00BC0183038F027E042
S11303E017E005C027E09CE3492E02C0212F412CD1
S11303F0560184E0A80EB11CF601608171818281EE
S11304009381042DA301B8D26C01F981FC87F0FF1C
S113041002C0F3FF06C091FC06C092FE06C000E2D3
S113042005C00DE203C00BE201C000E08C858C70B6
S113043019F0011143C280C297FE10C04C0CFC8518
S1130440F4FF04C08A81813309F44A94141474F5C6
S113045028E0241578F588E0482E2CC096FC2AC0A4
S1130460812F90E08C159D059CF03CEFC3163FEF67
S1130470D30674F0892D8068982E0AC0E2E0F0E07B
S1130480EC0FFD1FE10FF11D8081803319F4115031
S11304901111F4CF97FE0EC044244394410E812FD2
S11304A090E0C816D9062CF41C1904C044244394C3
S11304B001C010E097FE06C01C141D0434F4C601EC
S11304C0019605C085E090E002C081E090E0011152
S11304D00196112331F0212F30E02F5F3F4F820F1F
S11304E0931F252D30E08217930714F4581A01C086
S11304F0512C892D897041F4552031F0B70180E2E7
S113050090E028D35A94F8CF002321F0B701802F2C
S113051090E020D393FC08C0552031F0B70180E36C
S113052090E018D35A94F8CF97FE4AC04601D7FEFC
S113053002C0812C912CC60188199909F301E80F96
S1130540F91FFE87ED87960124193109388B2F870F
S1130550012F10E01195019511093FEF83169306C1
S113056021F4B7018EE290E0F5D2C814D9044CF01E
S11305708F8598898815990524F4ED85FE858181F8
S113058001C080E3F1E08F1A91082D853E852F5F2D
S11305903F4F3E872D878016910624F0B70190E0E7
S11305A0D9D2DBCFC814D90441F49A81963320F40C
S11305B0953319F43C8534FF81E3B70190E048C0DA
S11305C08A81813319F09C859F7E9C87B70190E0D6
S11305D0C1D2111105C094FC16C085E690E015C087
S11305E0B7018EE290E0B6D21E5F82E001E0080F10
S11305F0F301E80FF11D8081B70190E0ABD2802FA9
S11306000113F4CFE8CF85E490E0B701A3D2D7FC7F
S113061006C0C114D10441F4EC85E4FF05C0D194B3
S1130620C194D1088DE201C08BE2B70190E092D26F
S113063080E32AE0C216D1042CF08F5FFAE0CF1ACF
S1130640D108F7CFB70190E085D2B701C601C096B3
S113065081D249C1833631F0833779F0833509F08B
S113066052C01FC0560132E0A30EB11CF6018081B6
S1130670898301E010E0630111C05601F2E0AF0E7E
S1130680B11CF601C080D18096FE03C0612F70E0DA
S113069002C06FEF7FEFC60152D28C01F92DFF77B4
S11306A013C0560122E0A20EB11CF601C080D18015
S11306B096FE03C0612F70E002C06FEF7FEFC601AA
S11306C033D28C01F92DF0689F2EF3FD18C0852DCF
S11306D090E00817190798F4B70180E290E03AD245
S11306E05A94F5CFF60197FC859197FE81916F019D
S11306F0B70190E02FD251105A94015011090115FD
S1130700110581F7F0C0843611F0893659F5560188
S113071097FE09C024E0A20EB11CF601608171812C
S1130720828193810AC0F2E0AF0EB11CF6016081B0
S11307307181072E000C880B990BF92DFF769F2EE3
S113074097FF09C090958095709561957F4F8F4F65
S11307509F4FF0689F2E2AE030E0A3014AD2C82EB2
S1130760C6183EC0092D853721F40F7E2AE030E0FB
S11307701DC0097F8F3691F018F4883559F0BCC03C
S1130780803719F0883711F0B7C0006104FF09C041
S1130790046007C094FE08C0066006C028E030E08C
S11307A005C020E130E002C020E132E0560107FF3D
S11307B009C084E0A80EB11CF601608171818281B8
S11307C0938108C0F2E0AF0EB11CF6016081718123
S11307D080E090E0A3010DD2C82EC6180F77902EAA
S11307E096FE0BC0092D0E7FC11650F494FE0AC06C
S11307F092FC08C0092D0E7E05C0DC2C092D03C017
S1130800DC2C01C0D12E04FF0DC0FE01EC0DF11D46
S11308108081803311F4097E09C002FF06C0D3949D
S1130820D39404C0802F867809F0D39403FD10C0BC
S113083000FF06C01C2DD51478F4150D1D190CC02D
S1130840D51450F4B70180E290E084D1D394F8CF6A
S1130850D51410F45D1801C0512C04FF0FC0B7016A
S113086080E390E077D102FF16C001FD03C088E762
S113087090E002C088E590E0B7010CC0802F867834
S113088051F001FF02C08BE201C080E207FD8DE25E
S1130890B70190E05FD1C11630F4B70180E390E076
S11308A059D11150F8CFCA94F301EC0DF11D808198
S11308B0B70190E04FD1C110F6CF15C0F4E0F515A3
S11308C050F584E0581A93FE1EC0011125C02C85F2
S11308D023FF27C00CE810E0392D3071932EF80166
S11308E08491811121C0552009F4FCCCB70180E228
S11308F090E030D15A94F7CFF7018681978123C0D5
S11309008FEF9FEF20C0B70180E290E023D15A948B
S11309105110F9CFDACF512CB701802F90E01AD1C2
S1130920D6CF00E910E0D8CF91108052B70190E003
S113093011D10F5F1F4FD3CF23E0251510F483E0AF
S1130940C1CF512CC4CF60960FB6F894DEBF0FBE52
S1130950CDBFDF91CF911F910F91FF90EF90DF906A
S1130960CF90BF90AF909F908F907F906F905F904B
S11309704F903F902F900895283008F027E03327B8
S1130980DA01990F311D87FD9160009661057105AB
S113099039F432602E5F3D9330E32A95E1F70895F0
S11309A09F3F30F080387105610509F03C5F3C5F82
S11309B03D93913008F08068911DDF93CF931F938E
S11309C00F93FF92EF92192F987F9695E92F9695A2
S11309D09695E90FFF27E251FF4F99273327EE241D
S11309E0FF24A701E70105900894079428F4360F23
S11309F0E71EF81E491F511D660F771F881F991F98
S1130A000694A1F70590079428F4E70EF81E491FF1
S1130A10561FC11D770F881F991F661F0694A1F7E3
S1130A200590079428F4F80E491F561FC71FD11DBF
S1130A30880F991F661F771F0694A1F705900794E6
S1130A4020F4490F561FC71FD81F990F661F771F21
S1130A50881F0694A9F784911095177041F0D695D4
S1130A60C79557954795F794E7941A95C1F7E4E924
S1130A70F0E06894159015913591659195910590E4
S1130A807FE27395E118F10A430B560BC90BD009A9
S1130A90C0F7E10CF11E431F561FC91FD01D7EF481
S1130AA0703311F48A95E6CFE894015030F0080FC2
S1130AB00AF40027021708F4202F2395022F7A3313
S1130AC028F079E37D932A95E9F710C07D932A9560
S1130AD089F6069497956795379517951794E118B5
S1130AE0F10A430B560BC90BD00998F023957E915C
S1130AF073957A3308F070E37C932013B8F77E91F2
S1130B0070617D9330F0839571E37D9370E32A9552
S1130B10E1F71124EF90FF900F911F91CF91DF9196
S1130B20992787FD90950895FC01059061507040C8
S1130B300110D8F7809590958E0F9F1F0895FC01A2
S1130B406150704001900110D8F7809590958E0FF8
S1130B509F1F08950F931F93CF93DF93FB0123816E
S1130B6021FD03C08FEF9FEF2CC022FF16C04681EA
S1130B705781248135814217530744F4A081B18100
S1130B809D012F5F3F4F318320838C9326813781D2
S1130B902F5F3F4F3783268314C08B01EC01FB0189
S1130BA00084F185E02D0995892BE1F6D80116968C
S1130BB08D919C911797019617969C938E931697F7
S1130BC0CE01DF91CF911F910F910895CF93DF93C1
S1130BD0CDB7DEB7AE014B5F5F4FFA016191719102
S1130BE0AF0180915001909151013DDBDF91CF9194
S1130BF00895FA01AA27283051F1203181F1E894AF
S1130C006F936E7F6E5F7F4F8F4F9F4FAF4FB1E0FB
S1130C103ED0B4E03CD0670F781F891F9A1FA11DF6
S1130C20680F791F8A1F911DA11D6A0F711D811DF7
S1130C30911DA11D20D009F468943F912AE0269FBC
S1130C4011243019305D3193DEF6CF010895462F1B
S1130C504770405D4193B3E00FD0C9F7F6CF462FFC
S1130C604F70405D4A3318F0495D31FD4052419365
S1130C7002D0A9F7EACFB4E0A69597958795779522
S1130C806795BA95C9F700976105710508959B01A9
S1130C90AC010A2E06945795479537952795BA9532
S1130CA0C9F7620F731F841F951FA01D0895F89440
S1050CB0FFCF70
S1130CB20000000200000000E50000000000526590
S1130CC273756C742031203A2025660A0D00526532
S1130CD273756C742032203A2025660A0D00526521
S1130CE273756C742033203A2025660A0D00526510
S1110CF273756C742034203A2025660A0D00B8
S9030000FC
